:100000000C94BB040C94EC040C94EC040C94EC04E1
:100010000C94EC040C94EC040C94EC040C94EC04A0
:100020000C94EC040C94EC040C94EC040C94EC0490
:100030000C94EC040C94EC040C94EC040C94EC0480
:100040000C94EC040C94EC040C94EC040C94EC0470
:100050000C94EC040C94EC040C94EC040C947137A8
:100060000C94EC040C94E5370C94BB370C94EC0422
:100070000C94EC040C94EC040C94EC040C94EC0440
:100080000C94EC040C94EC040C94EC040C94EC0430
:100090000C94EC040C94EC040C94EC040C944D368D
:1000A0000C94EC040C94EC040C94EC040C94EC0410
:1000B0000C94EC040C94EC040C94EC040C94EC0400
:1000C0000C94EC040C94EC040C94EC040C94EC04F0
:1000D0000C94EC040C94EC040C94EC040C94EC04E0
:1000E0000C94EC040C94F00A0C9473300C94BF182C
:1000F0000C94E40A0C9470080C946E070C94CF2EA8
:100100000C94EC0A0C94D6090C94BE2E0C9419286D
:100110000C94C5070C94FF310C94AC2E0C94BC2E9F
:100120000C94DF180C94092B0C947F180C946C0819
:100130000C94F20A0C9407180C94D2320C94C52E2D
:100140000C948D0C0C9408100C9429080C944928DC
:100150000C94313C0C94F00B0C94B32E0C94BB34E7
:100160000C945B0C0C94E42E0C941B380C94D22E43
:100170000C94690B0C947A080C9498070C94E73152
:100180000C9447080C94740A0C949D0B0C94DA2E72
:100190000C94EE0A0C94242B0C9491070C942228B6
:1001A0000C946D310C9468080C9447130C943F2FF9
:1001B0000C94780C0C9456280C94A20A0C94EE0F14
:1001C0000C940B320C946A0C0C945A080C94D60FB5
:1001D0000C948A350C9407100C949E310C94B52E17
:1001E0000C9491330C9490090C9424080C946C0793
:1001F0000C94C82E0C94BE310C94CC290C94EB2E8C
:100200000C94F3310C9450080C94D1170C94972A49
:100210000C947E310C946F070C94DA2B0C944009EB
:100220000C94642C0C94480B0C94710C0C94DB31E2
:100230000C949E090C9454080C94A6310C9496319D
:100240000C94F4100C94440C0C947E070C94BE0B8C
:100250000C94B2310C948A310C94860C0C94A22E1E
:100260000C949F170C946D070C94060C0C94A92EFB
:100270000C94252D0C94E80A0C94DB0F0C94EA0ADC
:100280000C943F080C943E180C947C090C94CA31D1
:100290000C94E60A0C94DD2E0C94630C0C944C2800
:1002A0000C944A080C9476080C946D090C945E0822
:1002B0000C9466310C943B080C9443080C9462082F
:1002C0000C94E12E0C9417320C94BF0A0C94532812
:1002D0000C94230A0C9472310C947F0C0D0A00319B
:1002E0002E322E30004D6963726F636F6E74726FC1
:1002F0006C6C6572205368656C6C206C696272610D
:100300007279205665722E20007374657070657264
:10031000006D617472697800706F74006C636400C2
:100320006C6564000D0A006465766963653E004390
:100330006F6D6D616E64204E4F5420666F756E64F4
:100340002E0000000A0B02090C0D0E080703040121
:10035000000000000000000000000000000000009D
:10036000000000000000000000000000000012116A
:10037000100000000000000000000000000000006D
:1003800000000000000000004602000000FF08001E
:10039000053E5B4F5B3E053E6B4F6B3E051C3E7C56
:1003A0003E1C05183C7E3C18051C577D571C051C3F
:1003B0005E7F5E1C0400183C1805FFE7C3E7FF04DE
:1003C0000018241805FFE7DBE7FF0530483A060E62
:1003D00005262979292605407F05050705407F0563
:1003E000253F055A3CE73C5A057F3E1C1C08050882
:1003F0001C1C3E7F0514227F221405FFFFFFFFFF18
:1004000005F0F0F0F0F003FFFFFF05000000FFFF34
:10041000050F0F0F0F0F0508047E04080510207E3E
:1004200020100508082A1C0805081C2A080805AA27
:10043000005500AA05AA55AA55AA0530383E3830FD
:1004400005060E3E0E06020000015F0307000705C9
:10045000147F147F1405444AFF4A3205631308646D
:10046000630536494936480107033E41410341418E
:100470003E05082A1C2A080508083E08080260E014
:100480000408080808026060056010080403053EBF
:100490005149453E0304027F0571494949460541DA
:1004A00049494936050F0808087F054F4949493130
:1004B000053E4949493005030101017F0536494997
:1004C000493605064949493E026C6C026CEC03084A
:1004D00014220414141414032214080501590909E0
:1004E00006053E415D594E057E0909097E057F4995
:1004F000494936053E41414141057F4141413E0563
:100500007F49494941057F09090901053E414149A2
:1005100079057F0808087F03417F4105304141414B
:100520003F057F08142241057F40404040057F027F
:100530000C027F057F0408107F053E4141413E05C6
:100540007F09090906053E4141617E057F09192998
:10055000460546494949310501017F0101053F40F2
:1005600040403F051F2040201F053F4038403F05C9
:1005700063140814630503047804030561514945B5
:1005800043037F41410503040810600341417F0597
:100590000402010204048080808003010204043804
:1005A00044447C047F44443804384444440438447C
:1005B000447F043854545804047E05010418A4A44C
:1005C0007C047F040478017D0384857C047F1028EB
:1005D00044017F057C04780478047C0404780438A2
:1005E00044443804FC24241804182424FC047C0407
:1005F0000408045854543403047F04043C40407CF1
:10060000041C20407C053C4030403C046C10106CC5
:10061000041CA0A07C046454544C040836414101DD
:100620007F04414136080402010201057F41414136
:100630007F053E55555541053844443844057C2ACC
:100640002A3E14057E0202060605027E027E02058F
:100650006355494163053844443C0405407E201EEF
:10066000200506027E0202086313086463006060CE
:10067000052A2A2A2A2A03514A4403444A510500DA
:1006800000FF010303E080FF053612362436030223
:100690000502021818021010053040FF0101041F66
:1006A00001011E000000000901017F017F020C0210
:1006B0007F0000000000000100017D0418247E245A
:1006C00004447E454105221C141C2205012A7C2A73
:1006D000010177044E55553903020002077E81BDA2
:1006E000A5A5817E0326292F0508142A14220408B3
:1006F00008081803080808077E81BD95A9817E05B2
:1007000001010101010302050203242E240319152E
:10071000120315150A02020104F8204078050609A3
:100720007F017F021818040080A0C003121F10036D
:100730002629260522142A140808402F1008041E12
:10074000117C08402F10080462554C0915553F10C4
:1007500008041E117C053048484D400578151614D4
:1007600078057814161578057A1514157A05781613
:100770001516790578151415780578141514780769
:100780007E09097F494941059EA1612121057C54CB
:10079000554644057C54564544057E55544546050A
:1007A0007C5554454403457E4403447E4503467DC1
:1007B0004603457C4505087F49413E057C0A1122D8
:1007C0007D053844454638053844464538053A45A0
:1007D00044453A05384645463905384544453805C7
:1007E0002214081422057C625A463E053C404142D0
:1007F0003C053C4042413C053C4241423C053C41B9
:1008000040413C0502047A0502043F12120C057EA9
:1008100049494E30043845467C043844467D043806
:1008200046457E043A45467D043845447D04304AB9
:100830004D7A0720545438545458049CA262220420
:10084000385556580438545659043856555A0438B1
:1008500055545902017A027A01030279020302789F
:100860000204304B4B3C047A090A710430494A3087
:100870000430484A3104304A49320432494A31048A
:10088000394444390508082A08080438544C380407
:10089000384142780438404279043842417A043A77
:1008A00040407A0418A0A27904FC282810041AA059
:1008B000A07A00002200250028002B002E00310025
:1008C000340002010000050108010B0100002100B5
:1008D000240027002A002D00300033000101000011
:1008E000040107010A0105050505070508080808B0
:1008F000020202020A0A08080404040401010101B8
:1009000001010101030303030303030304070707B2
:100910000C0C0C0C0C0C0C0C020202020606060657
:10092000060606060B0B0B0B0B0B0B0B0102102024
:100930002008081020401020408002010201080415
:1009400002010102040810204080804020100804A9
:100950000201800402018040201008040201080402
:100960000201010204081020408001020408102046
:1009700040801B38313C11241FBECFEFD1E2DEBFD7
:10098000CDBF00E00CBF14E0A0E0B2E0E8E7F8E87B
:1009900000E00BBF02C007900D92AE31B107D9F74E
:1009A00026E0AEE1B4E001C01D92AE38B207E1F737
:1009B00014E0CAEBD4E000E006C021970109802FC3
:1009C000FE010E948040C93BD10780E00807A9F7DB
:1009D0000E94DD380C942A440C94000090E0FC0145
:1009E000E45DF64F24918A51974FFC01849188234E
:1009F00099F090E0880F991FFC01E453F74FA591FF
:100A0000B491FC01EE54F74F859194918FB7F8940F
:100A1000EC91E22BEC938FBF08954F925F926F920F
:100A20007F928F929F92AF92BF92CF92DF92EF927E
:100A3000FF920F931F93CF93DF93C0901E06D09029
:100A40001F06E0902006F090210680911A069091F2
:100A50001B06A0911C06B0911D06C81AD90AEA0A05
:100A6000FB0A6091220670912306809124069091E2
:100A700025069B01AC010E943B3F4B015C0160914C
:100A80002A0670912B0680912C0690912D069B01D1
:100A9000AC010E9490409B01AC01C501B4010E94D1
:100AA000FC400E946E41C114D104E104F10409F03C
:100AB000D3C062307105810591050CF0F2C010922F
:100AC00032061092330610923406109235061092B8
:100AD00022061092230610922406109225061092E8
:100AE0004206109243061092440610924506DF918A
:100AF000CF911F910F91FF90EF90DF90CF90BF901B
:100B0000AF909F908F907F906F905F904F900895DF
:100B10001016110612061306DCF46C157D058E0501
:100B20009F0524F4209110062111BBC09B01AC014C
:100B300088279927DC01821B930BA40BB50B8093AC
:100B4000420690934306A0934406B0934506A9C07D
:100B5000011511052105310509F4A3C06C157D05AA
:100B60008E059F050CF09DC080911006882309F426
:100B700098C030952095109501951F4F2F4F3F4FEE
:100B80000093420610934306209344063093450693
:100B900088C0011511052105310509F482C088249A
:100BA000992454018C189D08AE08BF086815790572
:100BB0008A059B050CF075C080911006811171C0EB
:100BC000D8CFC0904A06D0904B06E0904C06F090EB
:100BD0004D06A7019601C701B6010E9490402B0166
:100BE0003C01C501B4010E94DC3E20E030E040E859
:100BF00050E40E943B3F20E030E040E85FE30E9489
:100C000090409B01AC01C301B2010E94FC409B01DA
:100C1000AC01C701B6010E948F40D62FC72F6C01CF
:100C2000E0904E06F0904F0600915006109151064C
:100C30009701A8010E94A44118161CF4ED2EFC2E69
:100C40008601C701D80180934A0690934B06A09372
:100C50004C06B0934D064CC00091420610914306DD
:100C600020914406309145061C141D041E041F04E7
:100C70000CF44ECF10161106120613060CF089CF95
:100C80000027112798010C191D092E093F0960172B
:100C90007107820793070CF049CF209110062111AC
:100CA00045CF8090420690904306A0904406B090B5
:100CB000450681149104A104B10409F082CF80910A
:100CC000460690914706A0914806B0914906809348
:100CD0004A0690934B06A0934C06B0934D0681E0D4
:100CE0001C141D041E041F040CF080E080931006E9
:100CF0003FEF831A930AA30AB30A809242069092A6
:100D00004306A0924406B0924506C0904A06D09091
:100D10004B06E0904C06F0904D06C701B6010E94CC
:100D20007541609332067093330680933406909336
:100D30003506A701960160E074E284E799E40E9419
:100D4000FC406093220670932306809324069093C0
:100D50002506209110062111CACE905860932206D4
:100D6000709323068093240690932506C0CEEF92BD
:100D7000FF920F931F93FC0180A5882331F0A5A15A
:100D8000B6A19D967C936E939C9780A5882331F0A5
:100D9000A5A1B6A157965C934E93569780A588233C
:100DA00071F0A5A1B6A118963C932E9317971A96A9
:100DB0003C932E9319971C961C921E921B9780A50C
:100DC000882349F005A0F6A1E02D118F008FF38E46
:100DD000E28E168615861F910F91FF90EF90089571
:100DE000829590E09C01359527953595279523733D
:100DF000880F991F880F991F8C7C282B30E0C90120
:100E0000959587958575220F331F2A7A822B089531
:100E1000CF93DF93262F2695382F70E0680F791F28
:100E2000FC018E2F831B821750F481916150710950
:100E3000DB019C91EF01219798838C93F2CFDF9196
:100E4000CF910895482FFC018E2F841B8617E0F464
:100E5000219130E0C901959587958575220F331F43
:100E60002A7A822B90E09C01359527953595279518
:100E70002373880F991F880F991F8C7C822B829572
:100E8000DF0111978C93E0CF089520911705260F6D
:100E90003327331F21323105ECF420913D05FC014D
:100EA00090E080E0243069F082E00895A091170579
:100EB0002191AC014B505B4FA40FB52FB11D2C936A
:100EC0000196861798F380911705680F60931705B0
:100ED00080E0089581E00895089508950895E091CF
:100EE000EC048091EB04E81730F4F0E0E553FB4F9D
:100EF000808190E008958FEF9FEF08959091EC042A
:100F00008091EB042FEF3FEF981748F4E92FF0E0C2
:100F1000E553FB4F208130E09F5F9093EC04C901C3
:100F200008958091EB049091EC04891B990B08952E
:100F3000CF92DF92EF92FF920F931F93CF93DF93A5
:100F40007C01CB018A012091CA04222389F0EB01A4
:100F50006B01C40ED51ECC15DD0569F06991D70172
:100F6000ED91FC910190F081E02DC7011995F3CF2F
:100F7000642F0E944507C801DF91CF911F910F9107
:100F8000FF90EF90DF90CF900895CF93DF931F9263
:100F9000CDB7DEB769832091CA042223F9F02091EE
:100FA000ED04203258F021E030E0FC01338322834D
:100FB00090E080E00F90DF91CF9108958091EE0452
:100FC000E82FF0E0E655FB4F998190838F5F809387
:100FD000EE048093ED0481E090E0ECCF61E0CE017F
:100FE00001960E944507F7CF282F30E0F901EE5B0C
:100FF000FC4F9491F901E45DF64F44912A51374F2B
:10100000F9012491222309F435C0992311F191505B
:101010009231F8F4E92FF0E08827EE5EF74F8F4F1A
:101020000C9480404308470824083B083F082908DF
:101030004A08500854085A085E08620868086C0894
:101040002908700876087A08809180008F7780934D
:101050008000E22FF0E0EE0FFF1FEE54F74FA59156
:10106000B4918FB7F894EC91611148C040954E232C
:101070004C938FBF0895809180008F7DE8CF809141
:101080008000877FE4CF84B58F7784BDE2CF84B5BD
:101090008F7DFBCF8091B0008F778093B000D9CF48
:1010A0008091B0008F7DF9CF809190008F778093F1
:1010B0009000CFCF809190008F7DF9CF80919000EC
:1010C000877FF5CF8091A0008F778093A000C1CF5C
:1010D0008091A0008F7DF9CF8091A000877FF5CF10
:1010E000809120018F7780932001B3CF80912001E0
:1010F0008F7DF9CF80912001877FF5CF4E2BB8CF20
:1011000010923D0581E080933F0510923E0561E01D
:1011100084E10E94F40761E085E10E94F407E9EBB5
:10112000F0E080818E7F808380818D7F808388E462
:101130008093B80085E48093BC000895CF93DF933B
:1011400091E09093F4048823B9F0C091B800D09155
:10115000BA008091BC008A7B8093BC0060E084E18F
:101160000E94F40760E085E10E94F4070E94800875
:10117000D093BA00C093B800DF91CF910895863321
:1011800008F0865320917B00982F9870277F922B30
:1011900090937B008770806480937C0080917A00BC
:1011A000806480937A0080917A0086FDFCCF8091E4
:1011B00078009091790008953FB7F8948091A60443
:1011C0009091A704A091A804B091A90426B5A89B6A
:1011D00005C02F3F19F00196A11DB11D3FBFBA2FC9
:1011E000A92F982F8827BC01CD01620F711D811D89
:1011F000911D42E0660F771F881F991F4A95D1F70E
:1012000008958F929F92AF92BF92CF92DF92EF920A
:10121000FF926B017C010E94DC084B015C01C11450
:10122000D104E104F104B9F00E94DC0868197909DD
:101230008A099B09683E73408105910580F321E08E
:10124000C21AD108E108F10888EE880E83E0981EE2
:10125000A11CB11CE4CFFF90EF90DF90CF90BF9026
:10126000AF909F908F9008952FB7F8946091A2044B
:101270007091A3048091A4049091A5042FBF0895B8
:10128000AF92BF92CF92DF92EF92FF920F931F9394
:10129000CF93DF936C017B018B01040F151FEB01D2
:1012A0005E01AE18BF08C017D10759F06991D60189
:1012B000ED91FC910190F081E02DC6011995892BEB
:1012C00079F7C501DF91CF911F910F91FF90EF90BA
:1012D000DF90CF90BF90AF900895FC01538D448D67
:1012E000252F30E0842F90E0821B930B541710F0D1
:1012F000CF96089501970895FC01918D828D9817DE
:1013000061F0A28DAE0FBF2FB11D5D968C91928DB5
:101310009F5F9F73928F90E008958FEF9FEF0895E6
:10132000FC01918D828D981731F0828DE80FF11DAF
:10133000858D90E008958FEF9FEF0895FC01918DCA
:10134000228D892F90E0805C9F4F821B91098F73C3
:101350009927089580E795E00E949E0921E0892B56
:1013600009F420E0822F0895FC01A48DA80FB92F65
:10137000B11DA35ABF4F2C91848D90E001968F73BD
:101380009927848FA689B7892C93A089B1898C91DC
:10139000837080648C93938D848D981306C002882B
:1013A000F389E02D80818F7D80830895EF92FF92F5
:1013B0000F931F93CF93DF93EC0181E0888F9B8D78
:1013C0008C8D98131AC0E889F989808185FF15C032
:1013D0009FB7F894EE89FF896083E889F989808155
:1013E0008370806480839FBF81E090E0DF91CF9124
:1013F0001F910F91FF90EF900895F62E0B8D10E046
:101400000F5F1F4F0F731127E02E8C8D8E110CC0B4
:101410000FB607FCFACFE889F989808185FFF5CFFF
:10142000CE010E94B409F1CFEB8DEC0FFD2FF11D21
:10143000E35AFF4FF0829FB7F8940B8FEA89FB893C
:1014400080818062CFCFCF93DF93EC01888D88239A
:10145000B9F0AA89BB89E889F9898C9185FD03C017
:10146000808186FD0DC00FB607FCF7CF8C9185FFFC
:10147000F2CF808185FFEDCFCE010E94B409E9CF84
:10148000DF91CF91089580E090E0892B29F00E94B0
:10149000AA0981110E94000080E090E0892B49F0A8
:1014A00080E090E0892B29F00E94000081110E94C9
:1014B000000080E090E0892B49F080E090E0892BEB
:1014C00029F00E94000081110E94000080E090E05D
:1014D000892B49F080E090E0892B29F00E940000E0
:1014E00081110C9400000895CF93DF93FC012381B8
:1014F000222329F1EC0184810E94EE048D810E9457
:10150000EE048B81843011F0883099F48E810E9432
:10151000EE048F810E94EE048FA58F3F81F00E9420
:10152000EE046EA581E068278FA5DF91CF910C9422
:10153000F407833011F0863079F78E81EBCFDF919D
:10154000CF910895CF93DF93FC0123812223A1F053
:10155000EC010190F081E02D0480F581E02D60E048
:1015600019958FA58F3F41F00E94EE046EA58FA5BF
:10157000DF91CF910C94F407DF91CF910895DC01B6
:10158000ED91FC911197248135814770552766278D
:1015900077274150510961097109473051056105AB
:1015A000710570F4FA018827E752F54F8F4F0C94BC
:1015B0008040E40AE60AE80AEA0AEC0AEE0AF00ABF
:1015C00061E0CD01F901199465E0FBCF64E0F9CF4A
:1015D00066E0F7CF62E0F5CF6AE0F3CF68E0F1CFE5
:1015E00069E0EFCFCF93DF93EC01CB01BA0126E0A6
:1015F00030E040E050E00E942B40623071058105F0
:10160000910589F16CF46115710581059105D1F0A1
:101610006130710581059105F9F0DF91CF91089551
:10162000643071058105910561F124F16530710522
:101630008105910591F7E881F9810480F581E02D1C
:1016400066E006C0E881F9810480F581E02D64E060
:10165000CE01DF91CF911994E881F9810480F58161
:10166000E02D65E0F5CFE881F9810480F581E02D7A
:1016700061E0EECFE881F9810480F581E02D63E03F
:10168000E7CFE881F9810480F581E02D62E0E0CFC9
:10169000DC01ED91FC910480F581E02D437055272C
:1016A00066277727423051056105710571F0433097
:1016B00051056105710559F041305105610571050C
:1016C00011F065E0199466E0FDCF6AE0FBCF69E0B8
:1016D000F9CFCF93DF93EC01CB01BA0123E030E0E7
:1016E00040E050E00E942B4061307105810591057A
:1016F00099F06230710581059105A9F0672B682B7F
:10170000692BC1F4E881F9810480F581E02D64E062
:10171000CE01DF91CF911994E881F9810480F581A0
:10172000E02D61E0F5CFE881F9810480F581E02DBD
:1017300062E0EECFDF91CF910895DC01ED91FC9155
:101740000480F581E02D43705527662777274230C6
:1017500051056105710571F0433051056105710551
:1017600059F0413051056105710511F062E019949D
:1017700063E0FDCF61E0FBCF60E0F9CFCF93DF9373
:10178000EC01E881F9810480F581E02D8A8160E037
:10179000811162E0CE011995E881F9810480F5811B
:1017A000E02D8A8161E0811163E0CE0119958CA55D
:1017B0009DA58230910538F0880F991F880F991FD9
:1017C00005970197F1F7E881F9810480F581E02D13
:1017D0008A8160E0811162E0CE01DF91CF9119949E
:1017E000CF93DF93EC0120E030E0A9016C897D8983
:1017F0008E899F890E94A44118162CF4E8A9F9A9A2
:10180000DF91CF911994EAA9FBA9FACFCF92DF9289
:10181000EF92FF920F931F93CF93DF93DC01139608
:10182000CC91C43039F0C83059F1C33019F0C6300A
:1018300049F1C2E08C010C5F1F4FF12CE12CC62E48
:10184000D12CD1E0F8016481C6010E2C02C095951F
:1018500087950A94E2F780FD6D270F5F1F4F808107
:101860000E94F407BFEFEB1AFB0AEC1658F3DF9166
:10187000CF911F910F91FF90EF90DF90CF9008953F
:10188000C4E0D8CFC3E0D6CFDC011396EC91139718
:10189000E93008F042C0F0E08827EE5AF34F8F4F4E
:1018A0000C9480405B0C630C6A0C710C780C8D0CF2
:1018B0007F0C8D0C860CED91FC9111970084F185C5
:1018C000E02DCD011994ED91FC9111970284F385DF
:1018D000E02DF7CFED91FC9111970484F585E02D73
:1018E000F0CFED91FC9111970684F785E02DE9CFBB
:1018F000ED91FC9111970088F189E02DE2CFED91F7
:10190000FC9111970288F389E02DDBCFED91FC91DA
:1019100011970488F589E02DD4CF0895FC01848DBA
:1019200090A1A6A5B7A591FD15C0882381F0808D53
:10193000918D0597A9F481E024A535A52A173B07C9
:1019400009F080E080AB1197B7A7A6A70895828D14
:10195000938DEFCF882379F0808D918D059759F77E
:10196000CD01019697A786A781E011969C919111D0
:1019700080E080AB0895828D938DF0CFFC01868945
:1019800097898230910591F42389348936A325A360
:1019900031A720A78230910561F42189328933A7CC
:1019A00022A7029749F08FEF87A3089521893289F2
:1019B000EDCF23893489F3CF81E0F6CFFC01838515
:1019C000681738F52485358579E0679F200D311D2E
:1019D0001124848150E09381992371F0882331F0A0
:1019E00087E090E0FC01E41BF50BAF01240F351FED
:1019F000F90180810C94F006882331F087E090E0B3
:101A0000BC01641B750BAB01240F351FF9018081EC
:101A1000089580E008958F929F92AF92BF92CF92E7
:101A2000DF92EF92FF92CF93DF93FC01242F30E0FF
:101A30008381882309F447C087E090E0821B930BE1
:101A400091E001C0990F8A95EAF78385681708F03D
:101A500040C024853585A90189E0689F400D511D4E
:101A60001124BA01E48130E020E080E0A7E0B0E09A
:101A7000C12CD12C7601C394F22FAD01421B530B24
:101A8000E11101C0A901460F571FEA01488149230E
:101A900051F04601570104C0880C991CAA1CBB1CBC
:101AA000FA95D2F788292F5F3F4F2830310521F76B
:101AB000DF91CF91FF90EF90DF90CF90BF90AF90EC
:101AC0009F908F90089591E001C0990F4A95EAF791
:101AD000BCCF80E0EDCFFC01228121110C940B0DD5
:101AE0000C94DE0C462F47706695669566950C94AF
:101AF0006B0DCF92DF92EF92FF921F93CF93DF9304
:101B0000DC0158961C92589788E059968C93599707
:101B10005A961C925A975C961C921E925B978FEF76
:101B200090E05E969C938E935D9790961C921E9289
:101B30005F9756968D919C915797009709F478C0BE
:101B4000FC012491263409F031C03196E491E13052
:101B500009F453C022E030E0E23021F5FC01329676
:101B600024913196E49130E0322F22272E0F311D3F
:101B70005C963C932E935B97FC01349624913196AE
:101B8000E49130E0322F22272E0F311D5E963C93D8
:101B90002E935D97FC013696E4915996EC935997F4
:101BA00027E030E090963C932E935F975F96CD9020
:101BB000DC909097F12CE12C5B962D913C915C97F9
:101BC0005D96CD91DC915E9710E0C217D30770F15E
:101BD000FC01EC0DFD1D4491141708F4142F50E086
:101BE00070E060E04F5F5F4F6F4F7F4FC40ED51EB8
:101BF000E61EF71E2F5F3F4FE8CFFC013296E491BF
:101C0000F0E05C96FC93EE935B97FC013396E491D5
:101C1000F0E05E96FC93EE935D97FC013496E491C0
:101C20005996EC93599725E030E0BCCF5A961C9317
:101C3000DF91CF911F91FF90EF90DF90CF900895AB
:101C4000AF92BF92CF92DF92EF92FF920F931F93CA
:101C5000CF93DF93EC018B017A01E1E0F0E0CE015C
:101C6000BF010E946C406017710788F4D12CC12C11
:101C70003097B1F4F9011082DF91CF911F910F914C
:101C8000FF90EF90DF90CF90BF90AF900895CF017D
:101C9000809FF001819FF00D909FF00D1124DFCF08
:101CA000CE01BF010E946C40462FA62EB72EEC013C
:101CB000CF01B8010E946C40FB01C114D10479F43A
:101CC0001A141B0464F0309799F660E3640FD9018D
:101CD0006C93BFEFCB1ADB0A2F5F3F4FC9CF9AE05F
:101CE000A916B10494F367E5E114F10479F367E30D
:101CF000EDCF9091A004992339F0E0912C04F0915C
:101D00002D04309709F019940895FF920F931F93B3
:101D1000CF93DF9330E2F32E662311F020E3F22E0F
:101D20008A01FA01219121110BC0EC011C161D063C
:101D300054F48F2D0E94790E2197F8CF0197F2CF9E
:101D400018161906DCF3F80181918F01811106C084
:101D5000DF91CF911F910F91FF9008950E94790E0E
:101D6000F2CFCF93DF93EC01FE018491219688237B
:101D700019F00E94790EF8CFDF91CF910895CF939B
:101D8000DF93EC018991811106C08CED92E0DF9127
:101D9000CF910C94B10E0E94790EF4CFEEE2F4E0F4
:101DA00030E020E040815181452B21F44281538174
:101DB000452B41F02F5F3F4F34962530310591F789
:101DC00080E00895220F331F220F331FF901E25DD7
:101DD000FB4F918380837383628381E00895CF9268
:101DE000DF92EF92FF920F931F93CF93DF93FC014B
:101DF000C48121E02093CA04C0931E041092EE0413
:101E00001092ED048485682B84E695E00E94C50756
:101E1000D091ED04D13208F092C00E94DC086B0131
:101E20007C0180913D05811165C082E080933D0574
:101E300081E080933F058FEF80933C051092610510
:101E4000D0936005AAEAB4E0E0E4F5E080E0D813BE
:101E500085C01092620580916205CC0FC82BC0939B
:101E6000620580913E05813009F07CC010923E05EC
:101E70000E94DC086B017C01809162058093BB00AD
:101E80008091F0049091F104A091F204B091F304D8
:101E9000892B8A2B8B2B99F00E94DC080091F0048F
:101EA0001091F1042091F2043091F3046C197D0932
:101EB0008E099F090617170728073907E0F1809157
:101EC000BC0083FDD9CF85EC8093BC000E94DC0868
:101ED0006B017C0180913D05823009F445C0809101
:101EE0003C058F3F61F180913C05803241F180914A
:101EF0003C0525C08091F0049091F104A091F2047A
:101F0000B091F304892B8A2B8B2B09F48ACF0E9482
:101F1000DC080091F0041091F1042091F20430915A
:101F2000F3046C197D098E099F0906171707280706
:101F3000390708F076CF8091EF040E949E08109236
:101F4000EE041092ED041092CA04DF91CF911F911C
:101F50000F91FF90EF90DF90CF9008959D91919316
:101F60008F5F75CF85EEB0CF8091F0049091F10432
:101F7000A091F204B091F304892B8A2B8B2B09F4E6
:101F8000A9CF0E94DC080091F0041091F104209187
:101F9000F2043091F3046C197D098E099F0906172C
:101FA00017072807390708F095CFC5CF682F80E7B6
:101FB00095E00C94D609CF93DF93EC0180E795E090
:101FC0000E949E09009739F080E795E00E947C0905
:101FD000888381E090E0DF91CF910895CF93DF93E4
:101FE0001F921F92CDB7DEB769831A82DC01ED9193
:101FF000FC910084F185E02DBE016F5F7F4F199544
:1020000081E090E00F900F90DF91CF9108950895B7
:1020100090E080E00895CF92DF92EF92FF920F93CD
:102020001F93CF93DF93EC0188858823A1F08091E3
:102030002004882361F08FB7F894909120049130A8
:1020400041F59DB390931F049DB39DBB8FBF80E569
:102050008CBD81E08DBD60E08F810E94F407888592
:102060008823D1F030E020E08B8590E0880F991F25
:1020700028173907C8F5EE85FF85E20FF31F808129
:102080008EBD00000DB407FEFDCF8EB52F5F3F4F14
:10209000EBCF80931F04DBCF10E000E08B8590E056
:1020A000880F991F08171907F8F4EE85FF85E00FD0
:1020B000F11FE080DE80CD8088E0F82E6E2D661F57
:1020C0006627661F8C2D0E94F407EE0C61E08D2DB3
:1020D0000E94F40760E08D2D0E94F407FA94F1103D
:1020E000EDCF0F5F1F4FDACF61E08F810E94F407C1
:1020F0008885882371F080912004882351F09FB750
:10210000F8942091200480911F04213059F48DBB54
:102110009FBFDF91CF911F910F91FF90EF90DF90C4
:10212000CF9008958FBFF5CF0F931F93CF938C015E
:10213000C62F0E94EF0E6C2F6460C8010E94EF0E44
:102140006C2F6B7FC8010E94EF0E83EC90E001972B
:10215000F1F7CF911F910F9108950F931F93CF9394
:10216000DF938C01D62FC42F607F642B0E949410C4
:1021700080E1D89FB00111246C2BC801DF91CF9171
:102180001F910F910C949410CF93DF9300D000D047
:102190001F921F92CDB7DEB798E0EAE0F2E0DE01D1
:1021A000119601900D929A95E1F790915A06981721
:1021B00010F48FEF890F90E0880F991F21E030E035
:1021C0002C0F3D1F820F931FFC016081606840E06F
:1021D00082E596E028960FB6F894DEBF0FBECDBF1D
:1021E000DF91CF910C94AD1041E00E94AD1081E0E1
:1021F00090E00895CF93DF93FC0144815581608185
:10220000718180E795E00E944009EC0142E050E0D6
:1022100060EF72E080E795E00E9440098C0F9D1FFF
:10222000DF91CF9108954F925F926F927F928F923C
:102230009F92AF92BF92CF92DF92EF92FF926B018B
:102240007C0120E030E0A9010E94D53E87FF04C058
:10225000F7FAF094F7F8F09480902A0690902B0605
:10226000A0902C06B0902D06A7019601C501B401DF
:102270000E94D53E882309F456C0609142067091B1
:10228000430680914406909145060E94DC3E2B0156
:102290003C01A7019601C501B4010E94FC409B01CD
:1022A000AC01C301B2010E943B3F0E946E416093AA
:1022B0004206709343068093440690934506A70117
:1022C000960160E070E080E090E40E94FC400E9493
:1022D000AF4126E53EE04DE25FE30E943B3F20E058
:1022E00034E244E759E40E943B3F60934606709312
:1022F00047068093480690934906C0922A06D092DA
:102300002B06E0922C06F0922D06FF90EF90DF90C6
:10231000CF90BF90AF909F908F907F906F905F9085
:102320004F900C940D05FF90EF90DF90CF90BF90F1
:10233000AF909F908F907F906F905F904F90089597
:1023400085ED8093BC008091F0049091F104A09100
:10235000F204B091F3040796A11DB11D23E0B695D8
:10236000A795979587952A95D1F72091BC0024FDD4
:1023700003C010923D0508954091F0045091F1047E
:102380006091F2047091F304452B462B472B69F3BF
:102390000097A105B10541F025E32A95F1F700006A
:1023A0000197A109B109E1CF8091EF040C949E0837
:1023B0000F931F93CF93DF93EC018881998100974E
:1023C00059F02A813B812617370730F081E0DF91F1
:1023D000CF911F910F9108958B016F5F7F4F0E94E6
:1023E0002943009759F0998388831B830A832C81A2
:1023F0003D81232B59F7FC011082E8CF80E0E7CF25
:10240000EF92FF920F931F93CF93DF9361157105A6
:1024100041F480E0DF91CF911F910F91FF90EF90F9
:10242000089541155105B1F07B01EC010C811D812E
:10243000040F151FB8010E94D811882351F3288179
:1024400039818C819D81B701820F931F0E942344A3
:102450001D830C8381E0DECFCF93DF93EC01888175
:102460009981009711F00E94A042198218821D8262
:102470001C821B821A82DF91CF910895EF92FF9206
:102480000F931F93CF93DF93EC01198218821B8265
:102490001A821D821C826115710521F18B01FB01DD
:1024A00001900020E9F731977F01E61AF70AB7019A
:1024B0000E94D811811109C0CE01DF91CF911F91E7
:1024C0000F91FF90EF900C942C12FD82EC82B801DA
:1024D00088819981DF91CF911F910F91FF90EF90AB
:1024E0000C942344DF91CF911F910F91FF90EF90B7
:1024F0000895CF92DF92EF92FF920F931F93CF93A5
:10250000DF9300D000D000D0CDB7DEB78C01862F8E
:10251000F8011182108213821282158214824AE01D
:102520009E012F5F3F4F6901B90190E00E94A83ED4
:10253000F60101900020E9F731977F01EC18FD08C2
:10254000B701C8010E94D811811112C0C8010E94B0
:102550002C1229960FB6F894DEBF0FBECDBFDF91C7
:10256000CF911F910F91FF90EF90DF90CF90089542
:10257000F801F582E482B601808191810E942344B2
:10258000E8CFEF92FF920F931F93CF93DF93CDB7D6
:10259000DEB72E970FB6F894DEBF0FBECDBF7C011D
:1025A000CB01BA012AE08E010F5F1F4FA8010E94E4
:1025B000773EF80101900020E9F73197AF01401B09
:1025C000510BB801C7010E940012811103C0C7015D
:1025D0000E942C12C7012E960FB6F894DEBF0FBED4
:1025E000CDBFDF91CF911F910F91FF90EF90089594
:1025F000CF93DF93EC01FB0101900020E9F73197C5
:10260000AF01461B570B0E940012811103C0CE017F
:102610000E942C12CE01DF91CF910895CF93DF93CA
:10262000EC01FB0144815581608171810E9400129F
:10263000811103C0CE010E942C12CE01DF91CF91F7
:102640000895FC0180819181009711F00C94A042C3
:1026500008951F93CF93DF93EC01A881B9815A9617
:102660001C918EA9180F8BA9811768F48CA99DA9BC
:10267000009711F00E94A0421BAB812F90E00E94B6
:1026800004429DAB8CABDF91CF911F910895CF9207
:10269000DF92EF92FF920F931F93CF93DF937C0112
:1026A0006B01EA01CA0101960E9404428C01009765
:1026B000F1F0AE01B6010E940A44F801EC0FFD1FD3
:1026C0001082D701ED91FC910084F185E02DB801D5
:1026D000C7011995C8010E94A042CE01DF91CF9198
:1026E0001F910F91FF90EF90DF90CF900895D0E071
:1026F000C0E0F3CFCF92DF92EF92FF920F931F9340
:10270000CF936C017B01C42F8901DC01D196ED913F
:10271000FC91309709F1808191818E159F05C1F45C
:102720000280F381E02D80818C1708F4C82F4C2F94
:1027300050E0BF016F5F7F4FC8010E940A448C2F99
:10274000CF911F910F91FF90EF90DF90CF90089560
:102750000480F581E02DDDCFF6018081918122ADED
:1027600033ADDC0156964D915C912417350751F03D
:102770002115310511F428E833E0FC01378B268B55
:102780000E94790D0115110509F448C0D6012D915B
:102790003C91F901878D90A1B0E0A0E0438D548D6C
:1027A000E416F506A0F1658D768D6E157F0578F13E
:1027B00066897789FB01E80FF91FE416F50659F0E1
:1027C000E4918E0F911DA11DB11D0196A11DB11D9A
:1027D0004F5F5F4FEFCF4491C41710F50196A11DD5
:1027E000B11DA801801B910B642F601B6C1708F0B2
:1027F000A6CFBC01640F751FD9015696ED91FC91CF
:10280000E60FF71FE491DA01ED93AD01EDCF4C2F08
:1028100050E070E060E0C8010E941344C0E08FCF38
:10282000C491DCCF1F93CF93DF93EC01142F2CA91D
:102830003DA94BA90E947A13112389F0882379F0CE
:1028400090E02EA9921758F42BA9821730F4ECA926
:10285000FDA9E80FF11D10828F5F9F5FF2CFDF911E
:10286000CF911F9108950F931F93CF93DF93EC01A6
:102870008B01EEA5FFA541E08181811101C040E0FF
:10288000608170E0CE010E941214F801808328A1BB
:102890009C8D21FD10C0992359F0288D398D25304C
:1028A000310581F4682F8CA99DA90E9408070AC0F0
:1028B0002A8D3B8DF4CF9923B9F0288D398D2530A1
:1028C000310581F788A180FF06C0F80160818CA9DD
:1028D0009DA90E942207CE010E948E0C81E0DF910B
:1028E000CF911F910F9108952A8D3B8DE8CF0F93C3
:1028F0001F93CF93DF93EC01FB011082ACA5BDA524
:10290000BFA7AEA7109719F08C91811108C081E084
:1029100088AB80E0DF91CF911F910F91089518AAA5
:102920008C8D98A191FD10C0882359F0888D998DC8
:10293000059781F40D900020E9F71297BFA7AEA785
:1029400009C08A8D9B8DF4CF882331F1888D998DB4
:10295000059781F7AEA5BFA541E011968C9111971F
:10296000811101C040E08B016C9170E0CE010E94AA
:102970001214F801808328A19C8D21FD13C0992396
:1029800071F0288D398D2530310599F4682F8CA987
:102990009DA90E9408070DC08A8D9B8DD9CF2A8DD5
:1029A0003B8DF1CF992399F0288D398D2530310554
:1029B00069F788A180FF06C0F80160818CA99DA9F4
:1029C0000E942207CE010E948E0C81E0A3CF2A8DA7
:1029D0003B8DECCFFC01438550E0440F551F70E068
:1029E00060E0868597850C941344BF92CF92DF9266
:1029F000EF92FF920F931F93CF93DF93FC012385F8
:102A0000621708F04EC0EC01F9E06F9F70011124CD
:102A1000D12CC12C062F10E0BB24B394BC0CEC8548
:102A2000FD85EE0DFF1D808590E00C2C02C0959574
:102A300087950A94E2F780FF27C0CE010E94EA142E
:102A40008B858150990B801B910B880F991F2E85C8
:102A50003F85820F931FFC01B082EC85FD85EE0D52
:102A6000FF1DEC0DFD1D40818B858150990B801B56
:102A7000910B880F991F2E853F85820F931FFC01B4
:102A80004183CE010E940B10FFEFCF1ADF0A88E0CE
:102A9000C816D10409F68C859D85E80EF91EF7014C
:102AA0001086DF91CF911F910F91FF90EF90DF90F3
:102AB000CF90BF9008950F931F93CF93DF93EC01B6
:102AC000162F042F822F9B8191110E94F00699E00E
:102AD000199F90011124AC85BD85A20FB31F602FF3
:102AE00070E09C8147E050E0461B570B911101C0FC
:102AF000AB01A40FB51F8C93EC85FD85E20FF31F8E
:102B000020858C818823F1F047E050E0461B570B6D
:102B100081E090E0A0E0B0E004C0880F991FAA1FF8
:102B2000BB1F4A95D2F7822B80878C89882321F09E
:102B3000612FCE010E94F51481E0DF91CF911F91AA
:102B40000F91089581E090E0A0E0B0E004C0880F0C
:102B5000991FAA1FBB1F0A95D2F7E5CF9F92AF928C
:102B6000BF92CF92DF92EF92FF920F931F93CF937A
:102B7000DF93FC0189E0689FE001112481E090E08F
:102B8000A0E0B0E06C017D01042E04C0CC0CDD1C83
:102B9000EE1CFF1C0A94D2F7BC2C7C2D709507E02C
:102BA00010E0041B110904C0880F991FAA1FBB1F46
:102BB0000A95D2F7A82E382F309590E080E0022FAA
:102BC00010E027E0E22EF12CAC01A485B585AC0F16
:102BD000BD1F248193806801082E02C0D594C7943C
:102BE0000A94E2F7C0FE2AC0222319F0A701481B6D
:102BF000590BA40FB51F2C914B2D91104A2D242B4E
:102C00002C93019688309105F9F684859585C80F37
:102C1000D91F8FEF88878489882319F0CF010E94FC
:102C2000F51481E0DF91CF911F910F91FF90EF900C
:102C3000DF90CF90BF90AF909F900895222319F01E
:102C4000A701481B590BA40FB51F2C91472F9110BA
:102C5000432F2423D5CFFC0152813385552321F006
:102C6000631730F40C94AE15631710F40C945B15D5
:102C700080E00895242F462F477033E076956795BE
:102C80003A95E1F70C942B16FC01528133855523BC
:102C900031F0631750F4483041F00C945B15631722
:102CA00020F4483011F00C94AE1580E00895CF92D6
:102CB000DF92EF92FF920F931F93CF93DF93FC016C
:102CC000722F82815385882309F45DC0651708F04F
:102CD000BEC0283009F4BBC009E0609F7001112418
:102CE000848595858E0D9F1D50E0A22FB0E0248134
:102CF0002223B9F127E030E0E901C41BD50BAE0176
:102D00002A1B3B0B480F591FEA014881820F931F72
:102D1000EC01488384859585E701C80FD91F288574
:102D20008481882301F147E050E04A1B5B0B81E07E
:102D300090E0A0E0B0E004C0880F991FAA1FBB1F5D
:102D40004A95D2F7822B88878489811118C081E047
:102D5000DF91CF911F910F91FF90EF90DF90CF9077
:102D600008959D01CFCF81E090E0A0E0B0E004C0E5
:102D7000880F991FAA1FBB1F7A95D2F7E3CFCF0107
:102D80000E94F514E4CFA42FB0E09381992309F4B5
:102D90004FC027E030E02A1B3B0B91E001C0990FA8
:102DA0002A95EAF76517A0F6783091F2D9E06D9F81
:102DB000A001112401E010E020E030E06801790179
:102DC000072E04C0CC0CDD1CEE1CFF1C0A94D2F7AD
:102DD000DC2DCC2DC095A7E0B0E0A71BB10904C045
:102DE000000F111F221F331FAA95D2F7F02E009556
:102DF00030E020E0A485B585A40FB51FA20FB31F56
:102E00008C917381182F1923D9F0711117C07D2F60
:102E1000872B8C932F5F3F4F2830310559F78485DE
:102E20009585480F591F8FEFDA0118968C938CCF38
:102E300091E001C0990F4A95EAF7B4CF7F2DE8CF12
:102E4000711103C07C2F8723E4CF702FFCCF80E06B
:102E50007FCF8F929F92AF92BF92CF92DF92EF92ED
:102E6000FF920F931F93CF93DF9300D000D01F9258
:102E70001F92CDB7DEB78C01D62E29E0629F70017C
:102E80001124FA013197E730F10568F48827E45BF3
:102E9000F84E8F4F0C9480409F17D11707183E189B
:102EA0007F18BF18DF18DC0112968C918823C1F1BE
:102EB00030E020E0D8011C96ED91FC911D97EE0DBD
:102EC000FF1DE20FF31F808113969C91992331F12E
:102ED00090E09595879580832F5F3F4F283031058F
:102EE00049F7F80184859585E80EF91E8FEFD70123
:102EF00018968C9381E028960FB6F894DEBF0FBE2B
:102F0000CDBFDF91CF911F910F91FF90EF90DF9098
:102F1000CF90BF90AF909F908F900895880FDBCF98
:102F200087E090E0D8011C96ED91FC91EE0DFF1D1D
:102F3000E80FF91F208121830197A0F7D2CFF80174
:102F400082818823E1F030E020E0D8011C96ED91E9
:102F5000FC911D97EE0DFF1DE20FF31F808113966C
:102F60009C91992341F0880F80832F5F3F4F283039
:102F7000310559F7B6CF90E095958795F5CF81E06B
:102F800090E0D8011C96ED91FC91EE0DFF1DE80F2D
:102F9000F91F20813197208301968830910589F7A8
:102FA000A0CFF801C28085898823F9F040E0C801EC
:102FB000CC20C1F00E94DE0C8983CC20C1F020E03F
:102FC000CC24C394C20E4C2D6D2DC8010E945716FF
:102FD0002C2D2730A9F7298147E06D2DC8010E94CB
:102FE00044167FCF0E940B0DE7CF1982E6CF87E012
:102FF00090E0D8011C96ED91FC91EE0DFF1DE80FBD
:10300000F91F2081220F2083019798F7E4CFF80160
:10301000C28085898823D9F047E0C801CC20A1F07F
:103020000E94DE0C8983CC20A1F028E0CC24CA9435
:10303000C20E4C2D6D2DC8010E9457162C2DC110AB
:10304000F5CF298140E0C9CF0E940B0DEBCF19824B
:10305000EACF30E020E0D8011C96ED91FC91EE0D16
:10306000FF1DE20FF31F808190E095958795808387
:103070002F5F3F4F2830310571F7E3CFF801828190
:103080008823C1F0B12CA12CD8011C96CD90DC90E6
:10309000CE0CDF1CCA0CDB1CF60180810E94F006FE
:1030A000D6018C93BFEFAB1ABB0AE8E0AE16B104B1
:1030B00059F717CF30E020E047E050E0D8011C96E8
:1030C0008D919C918E0D9F1DFC01E20FF31FD0800E
:1030D000BA01621B730B860F971FDC018C918083F2
:1030E000D8011C96ED91FC91EE0DFF1DE60FF71F28
:1030F000D0822F5F3F4F2430310501F7F2CEF80127
:103100008281882329F130E020E047E050E0D801B7
:103110001C968D919C918E0D9F1DFC01E20FF31F5B
:10312000D080BA01621B730B860F971FDC018C9154
:103130008083D8011C96ED91FC91EE0DFF1DE60FEA
:10314000F71FD0822F5F3F4F2430310501F7C9CEE2
:10315000B12CA12CF801C484D584CE0CDF1CCA0C80
:10316000DB1CD6018C910E94F006F6018083FFEFF4
:10317000AF1ABF0A28E0A216B10461F7B2CECE01A1
:1031800001965C014C0187E0C82E4C2D6D2DC801C5
:103190000E946B0DD4018D934D01CA94BFEFCB12E9
:1031A000F4CFC12CF50121915F014C2D6D2DC8018B
:1031B0000E944416C394F8E0CF12F4CF92CE90E070
:1031C00080E0D8011C96ED91FC91EE0DFF1DE80FFB
:1031D000F91F20812095208301968830910589F779
:1031E00080CECF92DF92EF92FF920F931F93CF93F7
:1031F000DF93EC01DD24D394F12CE12C01E010E00D
:10320000B9E0CB2ECE010E94EA1498010E2C02C028
:10321000220F331F0A94E2F7E0E090E08B85E81775
:1032200098F5EC9DA0011124AC85BD85A40FB51FB8
:1032300018966C9170E062237323672B19F16E2F3F
:1032400070E08150990B861B970B880F991FAE85F4
:10325000BF85A80FB91FDC92AC85BD85A40FB51F33
:10326000AE0DBF1DFC918B858150990B861B970B72
:10327000880F991F4E855F85840F951FDC0111967D
:10328000FC9391E0EF5FCACF992319F0CE010E9421
:103290000B10BFEFEB1AFB0AD39488E0E816F10499
:1032A00009F0B0CF80E099E02B85821748F4EC85D7
:1032B000FD85899FE00DF11D112410868F5FF4CFED
:1032C000DF91CF911F910F91FF90EF90DF90CF9002
:1032D0000895CF93DF93C9E078E05FEF4617B0F031
:1032E0006C9F90011124FC01A485B585A20FB31F2A
:1032F000FD01D72F1192DA95E9F7DC011C96ED91CB
:10330000FC91E20FF31F50876F5FE8CFFC01248927
:10331000222321F0DF91CF910C94F118DF91CF910E
:1033200008956F927F928F929F92AF92BF92CF92A9
:10333000DF92EF92FF920F931F93CF93DF9300D012
:1033400000D000D0CDB7DEB78C01E62EF42E5901A7
:10335000D12C461708F4D5C0DC015496DC90549764
:1033600054961C9224303105B0F522303105C8F551
:103370002130310509F4DBC0D80155968C918823A2
:1033800009F486C06F2D660F660F660F695FC8016E
:103390000E94720DC82EAE2CB12C8F2D0F2C000C5C
:1033A000990B8A159B050CF489C050E040E06F2D05
:1033B000C8010E94291799249A949F0C47E0692D0F
:1033C000C8010E946B0D282F40E06F2DC8010E949C
:1033D0002B16F92CE2CF2430310561F0283031056D
:1033E00058F6A5016E2DC8010E942917E394FE141A
:1033F000C0F77EC0642F70E0AE2CB12C4B018A1850
:103400009B08BFEF8B1A9B0A97FE03C0EFEF8E1A43
:103410009E0A95948794712C29E0C22E472D50E086
:10342000481559050CF0CFC0F80124853585FA01FF
:10343000EA0DFB1DCE9EC001CF9E900D1124820F80
:10344000931FFC01DE0111966C2C01900D926A9481
:10345000E1F7FB01E41BF50BCE9EA001CF9E500DC2
:103460001124F901E40FF51FDC018C2D01900D9260
:103470008A95E1F7F801A485B585A40FB51FFE0173
:1034800031968C2D01900D928A95E1F77394C6CFF9
:10349000F801A288B388A114B10471F06F2D660FF2
:1034A000660F660F695FC8010E94720D482F70E0B9
:1034B00060E08F2DF5011995C12C6DCFD801509684
:1034C000ED91FC915197309749F055968C9181116F
:1034D00005C070E060E08E2D1995C82EB50183E01F
:1034E000660F771F8A95E1F74C2DC8010E943A16A6
:1034F000D8015496DC92DD2009F46FC0C8010E9407
:10350000F1188D2D29960FB6F894DEBF0FBECDBFF2
:10351000DF91CF911F910F91FF90EF90DF90CF90AF
:10352000BF90AF909F908F907F906F900895FC0117
:1035300085898823A9F1660F660F660FC8010E946E
:10354000720DC82E41E050E06E2DC8010E9429176F
:10355000BB24B394BE0C40E06B2DC8010E946B0DE0
:10356000282F47E06E2DC8010E942B16EB2CFB1470
:1035700048F7D8015096ED91FC915197309749F05A
:1035800055968C91811105C061E070E08F2D1995E1
:10359000C82EB8E0FB9EB0011124695F7F4FA4CF15
:1035A000A288B388A114B10461F0660F660F660F9C
:1035B000C8010E94720D482F61E070E08E2DF50168
:1035C0001995C12CBFCF44E050E06E2DC8010E9478
:1035D0002917E394FE14B8F78BCFDD24D39491CF51
:1035E0008F929F92AF92BF92CF92DF92EF92FF9213
:1035F0000F931F93CF93DF93EC01F62E8D859E855D
:10360000442309F4E0C08E01095C1F4F35E0C32E4E
:10361000D12C82309105E9F050F08330910509F406
:1036200041C0049709F4A8C085E090E00FC0BE0136
:10363000695C7F4FCE010E947714811103C086E040
:1036400090E004C019AE18AE83E090E09E878D87AD
:103650000DC01FAA88A98823B1F0DE86CD868D858E
:103660009E852FA9211116C0059799F7DF91CF915B
:103670001F910F91FF90EF90DF90CF90BF90AF9090
:103680009F908F900895B801CE010E94331481114C
:10369000E6CFE3CF059751F319AE18AE83E090E083
:1036A0009E878D878FA9882329F121E02F2530E07F
:1036B0004CA16BA1888199810E949119888199817F
:1036C0006D8D2CA93DA948AD59AD662301F1BA0114
:1036D0006F5F7F4F79AF68AF240F351FF9014081CD
:1036E0004095FF20F1F06BA1F8E06F9FB00111242D
:1036F0000E943A162FA988AD99AD2817190609F02E
:10370000B5CF88A9811115C082E090E09FCFBA01A2
:103710006F5F7F4F79AF68AF240F351FF90140818C
:10372000E0CF6CA128E0629FB0011124695F7F4F58
:10373000DFCF29893A89FF20B1F08F859889A901C7
:10374000481B590BCA0101962BA158E0259F8019EF
:103750009109112499AF88AF181619060CF064CF9F
:1037600084E090E073CF8CA1E8E08E9FC00111242B
:103770000796821B930BEECF21E0262730E04CA169
:103780006BA1888199810E949119888199814D8DC1
:103790004195FF2081F06BA1F8E06F9FB0011124EB
:1037A0000E943A1688AD99AD019799AF88AF892BE1
:1037B00009F05CCF39CF6CA128E0629FB0011124E1
:1037C000695F7F4FEDCF8430910539F0059709F09F
:1037D00036CF84E090E09E878D8721E02F2530E072
:1037E0004CA16BA1888199810E949119888199814E
:1037F0004D8D4195FF2009F445C06BA138E0639FD2
:10380000B00111240E943A160CA110E0ABA0B12C1B
:103810006801CA18DB088FEFC81AD80A23E0CC0C5D
:10382000DD1C2A95E1F78E8D9F8D009721F08C1578
:103830009D0508F46C010F5F1F4F83E0000F111FFF
:103840008A95E1F793E0AA0CBB1C9A95E1F7FF205B
:1038500021F145017401EA18FB0880169106DCF598
:10386000682D888199810E94720D90E02D8D222310
:1038700089F02FEF30E08217930769F5EFEF8E1A8A
:103880009E0AE8CF6CA158E0659FB0011124695FE2
:103890007F4FB8CF30E020E0EECF01501109F12C7E
:1038A000E12C0A151B05BCF0602F888199810E94CC
:1038B000720D90E02D8D222359F02FEF30E082170A
:1038C000930749F401501109FFEFEF1AFF0AE9CFFE
:1038D00030E020E0F4CFEC14FD0408F0B0CEC6CE0A
:1038E000CF93DF93EC014CA16BA1461720F08881A8
:1038F00099810E9469198D8D882351F027E030E06D
:103900004CA16BA188819981DF91CF910C94911981
:10391000DF91CF910895CF92DF92EF92FF920F93B4
:103920001F93CF93DF93EC010E94701CC988DA8843
:103930007E0187E3E80EF11CB701CE010E947714E7
:1039400019AE18AE86018B899C89081719077CF17E
:103950008FA928AD39AD8217130611F081110AC065
:103960001FAA88A9811104C0B701CE010E94331497
:1039700019AE18AE8FA9882331F38881998148AD9B
:1039800059AD9A012F5F3F4FECA9FDA9E40FF51F38
:103990004D8D39AF28AF442341F040814095B801A7
:1039A0000E943A1601501109CECF4081F8CFDF9125
:1039B000CF911F910F91FF90EF90DF90CF900895DE
:1039C000FF920F931F93CF93DF93EC01F62E8D851B
:1039D0009E85442309F462C08430910530F5019737
:1039E00058F18D859E85059721F483E090E09E87B0
:1039F0008D87CE010E948B1C0DA11EA12FA18AA52F
:103A00009BA5820F911D27FD9A9580179107E1F0E4
:103A10004D8D4195B801888199810E943A168FA1F8
:103A2000080F111D87FD1A95E9CF0597D1F285E0A2
:103A300090E09E878D872CC0CE010E94BE0C83E053
:103A400090E09E878D87CDCFFF2069F06DA17EA18C
:103A50000617170741F04D8D81E048274195888171
:103A600099810E943A168DA19EA12FA1022E000CD1
:103A7000330B4AA55BA5420F531F8417950721F40A
:103A800045E050E05E874D87820F931F9EA38DA374
:103A9000DF91CF911F910F91FF9008958430910590
:103AA00000F5019700F1CE010E948B1C08A519A515
:103AB0006DA17EA18FA1082E000C990B9B01280FF0
:103AC000391F20173107B9F04D8D4195B801888114
:103AD00099810E943A168FA1080F111D87FD1A9532
:103AE000E7CF059751F5CE010E94BE0C83E090E030
:103AF0009E878D87D8CFFF2079F02AA53BA5820F1E
:103B0000931F6817790741F04D8D81E04827419553
:103B1000888199810E943A168DA19EA12FA1022E23
:103B2000000C330B4AA55BA5420F531F8417950762
:103B300009F0AACF46E050E0A5CF86E090E079CF2B
:103B4000CF92DF92EF92FF921F93CF93DF93EC011E
:103B5000D42E8D859E85662309F458C08430910546
:103B6000A8F50197D0F1CE010E948B1C2DA13EA19A
:103B70002830310569F1E8A4F9A481E090E001C0A2
:103B8000880F2A95EAF7182FD11010952FA18AA532
:103B90009BA5820F911D27FD9A958E159F0549F1D2
:103BA000C880D9806E2DC6010E94720D9D8D412F57
:103BB0009923E9F04095482BB701C6010E943A16B7
:103BC0008FA1E80EF11C87FDFA94E0CF059759F21A
:103BD00085E090E09E878D8711C0CE010E94BE0CCB
:103BE0001EA21DA283E090E09E878D87BCCF482354
:103BF000E3CF8DA19EA101969EA38DA3DF91CF91CE
:103C00001F91FF90EF90DF90CF9008958430910541
:103C100098F5019798F1CE010E948B1C8DA19EA171
:103C200010E097FD05C011E001C0110F8A95EAF779
:103C3000E8A4F9A4D11010952FA18AA59BA5820F05
:103C4000911D27FD9A958E159F0531F1C880D98069
:103C50006E2DC6010E94720D9D8D412F9923D1F0CA
:103C60004095482BB701C6010E943A168FA1E80E75
:103C7000F11C87FDFA94E0CF0597C1F4CE010E94B4
:103C8000BE0C87E090E09EA38DA383E090E09E872A
:103C90008D87C1CF4823E6CF8DA19EA197FF04C099
:103CA00026E030E03E872D870197A6CF86E090E0A2
:103CB00091CFFF920F931F93CF93DF93EC01F42EDC
:103CC0008D859E85662309F444C08430910538F5BE
:103CD000019760F1CE010E948B1C2DA13EA18AA507
:103CE0009BA528173907E9F008A519A58FA1082E6B
:103CF000000C990B2DA13EA14AA55BA5480F591FA9
:103D00004017510709F464C0F11018C002171307D7
:103D1000C1F48FA1080F111D87FD1A95E7CF0597F4
:103D2000C9F285E090E09E878D8756C0CE010E9443
:103D3000BE0C83E090E09E878D87CCCF02171307DF
:103D400041F74D8D4195B801888199810E943A16BD
:103D5000E0CF8430910500F5019700F1CE010E947B
:103D60008B1C08A519A54AA55BA58FA1082E000CE0
:103D7000990B2DA13EA1BA01680F791F6017710739
:103D800001F1F11013C00217130799F48FA1080F66
:103D9000111D87FD1A95E7CF059721F5CE010E94E9
:103DA000BE0C83E090E09E878D87D8CF0217130763
:103DB00069F74D8D4195B801888199810E943A1625
:103DC000E5CF2417350724F446E050E05E874D87A1
:103DD000820F931F9EA38DA3DF91CF911F910F910F
:103DE000FF90089586E090E09ECFCF92DF92EF9211
:103DF000FF920F931F93CF93DF93EC01162F8D85C6
:103E00009E85442309F458C084309105B0F501978C
:103E100008F43AC0CE010E948B1C2DA13EA190E077
:103E200080E0111102C08FEF90E02817390739F1B7
:103E3000E8A4F9A42FA18AA59BA5820F911D27FDB7
:103E40009A958E159F0581F10D8DC880D9806E2DB4
:103E5000C6010E94720D011180954DA1111140956E
:103E6000482301114095B701C6010E943A168FA15F
:103E7000E80EF11C87FDFA94DDCF059759F285E035
:103E800090E09E878D8771C0CE010E94BE0C8FEF9F
:103E900090E0111102C081E090E09EA38DA383E029
:103EA00090E09E878D87B6CF8DA19EA1112309F446
:103EB00057C09595879557C08430910550F5019767
:103EC00050F1CE010E948B1CE8A4F9A42FA18AA571
:103ED0009BA5820F911D27FD9A958E159F0559F17F
:103EE0000D8DC880D9806E2DC6010E94720D011102
:103EF00080954DA111114095482301114095B701BE
:103F0000C6010E943A168FA1E80EF11C87FDFA94B3
:103F1000DDCF0597C1F4CE010E94BE0C81E090E098
:103F2000111102C08FEF90E09EA38DA383E090E07B
:103F30009E878D87C6CF8DA19EA1111107C00097C6
:103F400009F0B7CF06C086E090E09BCF8F3F910588
:103F500039F426E030E03E872D87112309F4A9CFFC
:103F6000880F991F81609EA38DA3DF91CF911F9130
:103F70000F91FF90EF90DF90CF900895EF92FF9216
:103F80000F931F93CF93DF93EC01162F8D859E85A2
:103F9000442309F488C08330910528F00397B1F1D8
:103FA00085E090E02AC069897A898B899C899B0188
:103FB000281B390BC90137FD019695958795019608
:103FC0009EA38DA31123B9F04D8D11E0412741959A
:103FD000681B790B888199810E943A164D8D412783
:103FE00041956B897C898DA19EA1680F791F88817D
:103FF00099810E943A1683E090E09E878D87DF9139
:10400000CF911F910F91FF90EF9008958DA19EA1E8
:1040100097FDC6CFCE010E948B1CF12CE12C6DA127
:104020007EA1E616F706C4F44D8D41956B897C8917
:104030006E0D7F1D888199810E943A164D8D4195A4
:1040400069897A896E197F09888199810E943A1657
:104050003FEFE31AF30AE3CF615071097EA36DA32A
:10406000112369F277FDCBCF4D8D11E041274195AA
:104070008B899C89680F791F888199810E943A16E3
:104080004D8D4127419569897A898DA19EA1681B33
:10409000790B88819981DF91CF911F910F91FF90CA
:1040A000EF900C943A168330910531F108F077C007
:1040B000019708F477C0CE010E94701CCE010E94C7
:1040C0008B1C1EA21DA2112399F04D8D01E04027EB
:1040D000419569897A89888199810E943A164D8D26
:1040E000402741956B897C89888199810E943A1685
:1040F00083E090E09E878D872DA13EA169897A8912
:104100008B899C89AB01481B590BCA0157FD01964D
:1041100095958795821793070CF444C04D8D419572
:10412000621B730B888199810E943A164D8D4195CF
:104130006B897C898DA19EA1680F791F88819981E7
:104140000E943A162DA13EA12F5F3F4F3EA32DA303
:10415000112309F454CF69897A898B899C89AB0131
:10416000481B590BCA0157FD0196959587958217F3
:1041700093070CF444CF4D8D11E041274195621B0C
:10418000730B888199810E943A164D8D4127419584
:104190006B897C898DA19EA1680F791F7ACF0597C5
:1041A00009F489CF86E090E028CFCF92DF92FF928A
:1041B0000F931F93CF93DF93EC01F62E8D859E8591
:1041C000442309F484C08330910570F0039751F1C2
:1041D00085E090E09E878D87DF91CF911F910F91B1
:1041E000FF90DF90CF9008951EA21DA2CE010E94E5
:1041F000701CFF2099F04D8D11E041274195698990
:104200007A89888199810E943A164D8D412741957E
:104210006B897C89888199810E943A1683E090E0BD
:104220009E878D87CE010E94701CCE010E948B1C40
:104230000B891C8989899A89801B910B97FD0196AE
:104240006C01D594C7948DA19EA1080F191FC816A3
:10425000D9060CF4BDCF0F5F1F4F69897A898DA1F4
:104260009EA19B01281B390B0217130744F44D8DA7
:104270004195B801888199810E943A16ECCF019648
:104280009EA38DA3FF2009F4A7CFC816D9060CF46E
:10429000A3CF4D8D11E041274195681B790B888193
:1042A00099810E943A164D8D412741956B897C89F1
:1042B0008DA19EA1680F791F88819981DF91CF918F
:1042C0001F910F91FF90DF90CF900C943A1683309E
:1042D0009105D1F1A0F50197A0F189899A892B89DF
:1042E0003C89821B930B97FD0196959587959EA31C
:1042F0008DA3CE010E94701CCE010E948B1CFF205A
:10430000D9F04D8D11E04127419569897A898DA1B8
:104310009EA1681B790B888199810E943A164D8D68
:10432000412741956B897C898DA19EA1680F791FDA
:10433000888199810E943A1683E090E04BCF0597DF
:1043400061F286E090E046CF8DA19EA197FDF9CF66
:104350004D8D419569897A89681B790B888199818E
:104360000E943A164D8D41956B897C898DA19EA145
:10437000680F791F888199810E943A168DA19EA1AC
:1043800001979EA38DA3FF2009F426CF97FD24CF8C
:104390004D8D11E04127419569897A897ECFCF9271
:1043A000DF92EF92FF920F931F93CF93DF93EC0175
:1043B000D62EC42E790180E04617E0F02A30310570
:1043C00008F069C0CE010E94EA1492E0E916F104F7
:1043D00009F453C0C0F4E114F10429F1F1E0EF163F
:1043E000F10409F443C0D394CD1478F7CE010E94B0
:1043F0000B1081E0DF91CF911F910F91FF90EF9013
:10440000DF90CF90089583E0E816F104E9F194E09D
:10441000E916F10441F781E00115110509F480E086
:10442000819599E006C081E00115110509F080E051
:104430009CE04D2D50E02B852150330B241B350B78
:10444000220F331F6E857F85260F371FF90190835A
:104450002B852150330B241B350B220F331F4E8528
:104460005F85240F351FF9018183BDCF802F083070
:1044700011050CF087E09BE0DCCF802F00311105A7
:104480000CF08FE09AE0D5CF81E00115110509F419
:1044900080E09FE0CECF81E00130110509F080E09F
:1044A000FBE0EF16F10449F08C8B0130110509F0A7
:1044B000A0CFCE010E94F1189CCF8D8B9ACFAF92E6
:1044C000BF92CF92DF92EF92FF920F931F93CF9301
:1044D000DF93EC01F62E8D859E85442309F46EC092
:1044E0008430910580F50197A8F1CE010E94701CDF
:1044F000CE010E948B1CCBA088E0C89E60011124D5
:10450000EE24E394F11002C050E8E52E0DA11EA1A7
:104510008CA190E0019643E0880F991F4A95E1F73E
:10452000C816D906ACF5A880B9806C2DC5010E94CB
:10453000720D101624F5FF2001F1880F9D8D911149
:104540008E290150F6CF059781F285E090E09E8795
:104550008D8729C087E090E09EA38DA310E000E046
:104560002BE030E04CA16BA1888199810E94CF2182
:1045700083E090E09E878D87B8CF8695DFCF482F68
:10458000B601C5010E943A168FEFC81AD80ABECFED
:104590000115110521F485E090E09E878D8701507B
:1045A00011091EA30DA3DF91CF911F910F91FF90D1
:1045B000EF90DF90CF90BF90AF9008958430910539
:1045C00060F5019760F10BA188E0089F800111243C
:1045D00030E8E32EF11002C0EE24E3948CA190E0C9
:1045E000019623E0880F991F2A95E1F7081719070C
:1045F000FCF4C880D980602FC6010E94720D482F3C
:10460000FF20A1F046958D8D81114E29B801C6017C
:104610000E943A160F5F1F4FE1CF0597B1F41EA21B
:104620001DA283E090E09E878D87CDCF440FEBCF16
:104630008DA19EA18730910521F426E030E03E87D0
:104640002D8701969EA38DA3AECF86E090E07FCF0D
:104650000F931F93FC0161A3062F10E022E030E0CE
:1046600044A163A1808191810E94CF211F910F916C
:104670000895AF92BF92CF92DF92EF92FF920F9385
:104680001F93CF93DF93EC01F62EE42E8D859E854C
:10469000222309F4D9C08430910588F50197B0F13F
:1046A000CE010E94701CCE010E948B1C0DA11EA188
:1046B000EE2009F464C0EE24E394F11002C070E827
:1046C000E72ECDA0DEA08CA190E0019663E0880FDC
:1046D000991F6A95E1F708171907BCF5A880B980FA
:1046E000602FC5010E94720D9C2D191624F5FF2024
:1046F00001F1880F2D8D21118E299150F6CF05974C
:1047000079F285E090E09E878D8793C087E090E006
:104710009EA38DA310E000E02BE030E04CA16BA144
:10472000888199810E94CF2183E090E09E878D87C8
:10473000B7CF8695DFCFB8016C197D09482FC50129
:104740000E943A160F5F1F4FBCCF10E000E08DA112
:104750009EA1081719070CF061C04D8D41956CA101
:1047600028E0629FB0011124695F7F4F601B710BCD
:10477000888199810E943A160F5F1F4FE8CF8CA164
:1047800038E0839FC00111249C01201B310B89015B
:10479000085F1F4FEE24E394F11002C050E8E52EAD
:1047A000CDA0DEA08BA138E0839FC00111240817A3
:1047B0001907ECF0A880B980602FC5010E94720D26
:1047C0009C2D191654F4FF2031F0880F2D8D2111E6
:1047D0008E299150F6CF8695F9CFB8016C0D7D1DCD
:1047E000482FC5010E943A1601501109D9CF10E097
:1047F00000E08DA19EA10817190784F44D8D419505
:104800006BA188E0689FB0011124600F711F88813F
:1048100099810E943A160F5F1F4FEBCF8DA19EA189
:10482000009721F425E030E03E872D8701979EA375
:104830008DA3DF91CF911F910F91FF90EF90DF90AB
:10484000CF90BF90AF9008958430910580F5019787
:1048500088F1EE20C1F10CA128E0029F8001112413
:104860000A5F1F4F40E8B42EF11002C0BB24B3947E
:10487000C880D9808BA138E0839FC001112408171C
:1048800019070CF450C0602FC6010E94720D482F0A
:10489000FF20B9F046958D8D81114B29B8016F5FCE
:1048A0007F4FC6010E943A1601501109E1CF0597CA
:1048B00009F059C01EA21DA283E090E09E878D875B
:1048C000C8CF440FE8CF0BA188E0089F80011124D6
:1048D0000F5F1F4F30E8B32EF11002C0BB24B3941A
:1048E000C880D9808CA190E0019623E0880F991FA1
:1048F0002A95E1F708171907B4F4602FC6010E9442
:10490000720D482FFF2069F046958D8D81114B293E
:10491000B80161507109C6010E943A160F5F1F4F1E
:10492000DFCF440FF2CF888199814D8D4195EE20E4
:1049300091F06BA128E0629FB00111240E943A1609
:104940008DA19EA18730910521F426E030E03E87BD
:104950002D8701966CCF6CA138E0639FB0011124C4
:10496000695F7F4FEBCF86E090E0CDCE0F931F9332
:104970009B018A01FC014385415060E00E94CF21E8
:104980001F910F9108950F931F93CF93DF93809101
:104990006B06882309F4E0C0CFB7F89480916305D3
:1049A000811124C0EBE1F9E08491E1E6F9E0949112
:1049B000E82FF0E0EE0FFF1FE453F74FA591B491FD
:1049C000EC91E92321F461E085E30E94F40785E39B
:1049D0000E94EE048CB580618CBD8CB580648CBD6A
:1049E00084E30E94EE0483E30E94EE048091630559
:1049F0008F5F80936305CFBF80916A060E94EE04AB
:104A000061E080916A060E94F40710927406109289
:104A100073061092760610927506C0916E0629E014
:104A2000C29FC00111240E9404429093700680939B
:104A30006F068C2F90E0880F991F0E94044290937C
:104A40007206809371068091790690917A06885853
:104A5000934051F088E893E090937A06809379062A
:104A600083E696E00E94790D50E040E063E070E05C
:104A700083E696E00E94B62447E050E061E070E0F3
:104A800083E696E00E94B62447E050E062E070E0E2
:104A900083E696E00E94B62450E040E064E070E0D7
:104AA00083E696E00E94B62440916E06415060E095
:104AB00083E696E00E94691950E040E070E060E013
:104AC00083E696E00E94B624C1E0C093870686E4A0
:104AD00090E00E940442FC0181E090E09183808399
:104AE000138212821482158216821782108686E043
:104AF00090E0908B878711A210A212A217A616A68B
:104B000014AA13AA15AA17AA16AAC0AF15AE14AEF6
:104B100017AE16AEDF01A05CBF4F1D921C923296FD
:104B2000F0938506E0938406C0E0D4E403E616E043
:104B300080918706E0918406F0918506C817A8F455
:104B4000CF01CD9F800D911D1124FC0111830083A5
:104B50000E942913CF5FECCF809168060E94EE047B
:104B6000809169060E94EE0447CF813041F4209184
:104B700086069FEF920F921710F413A294A3DF0101
:104B800090E02AE030E0891761F018963C932E936C
:104B900017971A963C932E9319979F5FAC5BBF4F64
:104BA000F2CF8823C9F0878190854AE0489F900121
:104BB000499F300D112480E094E4409187068417CA
:104BC00070F4DF01899FA00DB11D11241C963C9348
:104BD0002E931B978F5FF1CF90E080E0E6CFC0E08F
:104BE00014E4D1E0409184065091850680918706B7
:104BF000C81758F4CA01C19F800D911D1124FC01F2
:104C0000D6AB0E942913CF5FEDCF90E084E42091D2
:104C10008706921748F4FA01989FE00DF11D1124C0
:104C2000178E168E9F5FF3CF90E084E42091870665
:104C3000FA01921768F090E061E070E0921781F05D
:104C4000718F608F138E128E9F5FEC5BFF4FF6CFDC
:104C5000989FE00DF11D1124178A168A9F5FE6CFF9
:104C600090E084E420918706921740F4FA01989F1F
:104C7000E00DF11D1124158E9F5FF4CFDF91CF91D0
:104C80001F910F9108952F923F924F925F926F92D2
:104C90007F928F929F92AF92BF92CF92DF92EF92CC
:104CA000FF920F931F93CF93DF9300D000D000D0DB
:104CB0001F921F92CDB7DEB79B838A8304969D8394
:104CC0008C8350E040E06AE070E00E94B624212C22
:104CD000198206E010E0E5E04E2E512CF3E06F2E35
:104CE000712CAA81BB8198968C919897281610F008
:104CF0000C941D2F9596ED91FC9124E4229EE00DDD
:104D0000F11D1124FB87EA8712A2858596858630DE
:104D1000910511F40C94EE2E248D2223C9F0C78046
:104D2000D084F12CE12C0597C9F00E943409EA8562
:104D3000FB8583809480A580B680681979098A09EB
:104D40009B096C157D058E059F0518F580E09CC1BB
:104D5000AA85BB851996CD90DC90E3CF0E943409DB
:104D6000AA85BB8513968D909D90AD90BC901697AB
:104D7000AB01BC01481959096A097B091B968D9141
:104D80009C91B0E0A0E0481759076A077B0768F6D6
:104D9000DDCFEA85FB8592809110D8CF0E9434093F
:104DA000AA85BB8513966D937D938D939C931697DF
:104DB00081E092968C9392979C96AD90BC909D9733
:104DC000A114B10409F456C11D968D919C910097D0
:104DD00009F435C0069709F44DC1AA85BB855C96D8
:104DE0003C905C97332009F4F8C05896ED91FC9103
:104DF0003197EC31F10508F097C38827ED5FF84D46
:104E00008F4F0C9480401928222849284C28532879
:104E1000252D5628CC29972ADA2B242B642CA22E58
:104E2000A92EB32EAC2EBC2EB52EBE2EC52EC82E4E
:104E3000CF2ED22EDA2EDD2EE12EE42EEB2EEA85B9
:104E4000FB85B7A6A6A6E4A0F8E0EF9E70011124AA
:104E50009701295F3F4F7901AA85BB8593968C9175
:104E6000B8E08B9FE018F1081124EFEFEE1AFE0A6C
:104E7000D12CC12CD5016D915D016623C1F0EA856D
:104E8000FB8524A935A970E043A9CF010E947A13BC
:104E900090E0C80ED91E892B69F3D5018C91882327
:104EA00049F3EA85FB8586A9C80ED11CE3CFAA8504
:104EB000BB855096DC92CE921F9756968D919C9111
:104EC0008130910509F455C028F0029771F19924B9
:104ED00093941DC0EA85FB8584A190E0019673E060
:104EE000880F991F7A95E1F79C0121503109328B87
:104EF000218BEC14FD0490F483A1F8E08F9FC00196
:104F00001124AA85BB8554969C938E93539781E078
:104F10009826EA85FB85958A848F5FCF8C199D0939
:104F2000EA85FB85948B838BD2CFAA85BB8593962C
:104F30008C91B8E08B9FC0011124EA85FB85948B8E
:104F4000838BEC14FD0468F484A1F8E08F9FC0010A
:104F500011240796AA85BB8552969C938E935197F0
:104F6000D6CF0197C80ED91EEA85FB85D28AC18AA1
:104F7000AECFAA85BB8593962C91B8E02B9F90016C
:104F80001124EC14FD0498F4EA85FB8584A1F8E073
:104F90008F9FC00111240796AA85BB8552969C93CA
:104FA0008E93519754963C932E935397B0CFEC1811
:104FB000FD08F694E794E20EF31EEA85FB85F48A79
:104FC000E38AF1E0CF1AD108CE0CDF1CAA85BB859D
:104FD0005296DC92CE9251977ACFAA85BB855A968B
:104FE000ED91FC913197EC31F10508F09DC28827D5
:104FF000E350F84D8F4F0C948040092B222849280C
:105000004C285328252D5628CC29972ADA2B242BD7
:10501000642CA22EA92EB32EAC2EBC2EB52EBE2EE5
:10502000C52EC82ECF2ED22EDA2EDD2EE12EE42E66
:10503000EB2E8A859B850E948B1CEA85FB85568614
:10504000458606C0432D61E08A859B850E945F22CC
:10505000AA85BB855C968C915C971D962D913C91A1
:10506000882329F081E02530310509F480E0EA85C4
:10507000FB85848F81E0AA85BB851D962D913C918F
:105080002630310509F062CEB981B82BB98323945B
:1050900028CE432D60E0D8CF432D61E08A859B85E3
:1050A0000E94F01AD5CF432D60E0F8CFEA85FB854A
:1050B00085859685332009F4EAC07F01F7E3EF0E7A
:1050C000F11C82309105A1F130F0039709F45BC027
:1050D000AA85BB8566C26A857B85695C7F4F8A85A8
:1050E0009B850E947714811103C0AA85BB859CC64D
:1050F0008A859B850E94701CEA85FB8511AE10AEE7
:1051000083A1F8E08F9FC0011124AA85BB859696E4
:105110009C938E93959751968D919C9152979B96C7
:105120009C938E939A971E967C926E921D9790CF29
:10513000EA85FB8517AA80A9882381F0AA85BB850B
:105140001E965C924E921D97EA85FB858585968515
:1051500027A921110BC0059759F77ACFB7018A8586
:105160009B850E9433148111EFCFE8CF059709F496
:105170006FCFAA85BB85D9961C921E92D8971E9692
:105180007C926E921D97EA85FB8565A176A182A52A
:1051900093A504A8F5A9E02DAA85BB85D8962D91E5
:1051A0003C91D997E20FF31F40816817790751F4BA
:1051B0008D919C9111975D962C91211140950E94A3
:1051C0003A163BCF411135C0AA85BB8596969C9374
:1051D0008E939597EA85FB8585A196A122A533A597
:1051E00082179307C1F420AD31AD43A1F8E04F9F82
:1051F000A0011124AA85BB8596965C934E93959742
:105200002F5F3F4FD9963C932E93D89701979B964B
:105210009C938E939A97EA85FB8527A980AD91ADE3
:105220002817190609F014CF82E090E09687858749
:105230000FCFEA85FB85458D4195808191810E9444
:105240003A16AA85BB8595966D917C9196976F5F6E
:105250007F4F96967C936E9395978D919C91119725
:105260005D96EC915D97D4962D913C91D597D8960B
:105270004D915C91240F351FEE2331F0F9014081EF
:1052800040950E943A16A6CFD9014C91FACF8130B1
:10529000910508F42ACF8430910568F0059709F04C
:1052A00024CFEA85FB858189928993A782A796A35B
:1052B00085A376866586AA85BB85CD90DC901197FF
:1052C0005D968C9188248A94912C811102C0912C36
:1052D000812CEA85FB85A388B488AA85BB85959631
:1052E000ED90FC906E2DC6010E94720DEA85FB8543
:1052F00022A533A58815190451F42A153B053CF065
:10530000C901019793A782A736A325A3E6CF2F5FF4
:105310003F4F2A153B050CF4E8CEEA85FB8524A116
:10532000F8E02F9F90011124295F3F4FE216F3060A
:105330003CF4B7016F5F7F4F482FC6010E943A16B9
:10534000AA85BB855D964C915D97419595966D912B
:105350007C9196978D919C910E943A16EA85FB85E7
:1053600025A136A12F5F3F4F36A325A384A190E04E
:10537000019643E0880F991F4A95E1F728173907EE
:1053800009F066CE82A593A59C012150310933A76F
:1053900022A796A385A35CCEEA85FB8585859685A5
:1053A000332009F467C08430910508F042C00197AA
:1053B00008F443C08A859B850E94701C8A859B8562
:1053C0000E948B1CEA85FB8593A0990C990C990C83
:1053D00088248394AA85BB859596ED90FC9096973A
:1053E00094968C91949790E0019623E0880F991FF2
:1053F0002A95E1F7A92CB12CA816B90674F5CD9021
:10540000DC90692DC6010E94720D482F50E087E0A4
:1054100090E08E199F093320D9F002C05595479529
:105420008A95E2F7B501C6010E943A163824939492
:10543000D1CF059709F4BECF00CEAA85BB8596963D
:105440001C921E9295971E967C926E921D97B2CFDB
:1054500001C0440F8A95EAF7E5CFBFEFEB1AFB0ACC
:10546000EA85FB85F6A2E5A2F8E0EF16F10409F063
:10547000EFCD2ECE8430910598F50197A0F1AA8545
:10548000BB8593969C90990C990C990C88248394D5
:1054900033243394EA85FB85E5A0F6A084A190E04F
:1054A0000196B3E0880F991FBA95E1F7A92CB12CAA
:1054B000A816B9065CF5C080D180692DC6010E948E
:1054C000720D482F50E08820D9F001C0440FEA94B3
:1054D000EAF7B501C6010E943A1683249394DACF05
:1054E000059709F002CEE1E0F0E0AA85BB8596962B
:1054F000FC93EE9395971E967C926E921D97BFCF6C
:1055000002C055954795EA94E2F7E3CFFFEFEF1A13
:10551000FF0AAA85BB859696FC92EE929597B8E015
:10552000EB16F10409F094CDEA85FB8508C4EA8501
:10553000FB8585859685332009F45AC08430910512
:1055400000F58230910500F5009781F1019709F08F
:10555000BFCDAA85BB8595966D917C919697CB0121
:10556000019696969C938E939597CD010E94282341
:105570008A859B850E948B1CEA85FB8576866586DD
:1055800067CD059709F0A4CDAA85BB8595966D9149
:105590007C9196979A968D919C919B9786179707E9
:1055A000ECF41E965C924E921D9752CDAA85BB8557
:1055B00096961C921E92959791968C91919790E059
:1055C0009B969C938E939A97CD010E94701C21E02C
:1055D00030E0EA85FB85368725873ACDCB010196F9
:1055E000EA85FB8596A385A3CF010E94282330CDB1
:1055F0008430910598F40197A0F0EA85FB8565A1B8
:1056000076A1CB01019777FFEBCF62A5CF010E9476
:1056100028238A859B850E94701C67CD059709F019
:1056200064CDEA85FB8561A1862F90E093A782A7D0
:1056300096A385A3CF010E9428238A859B850E947B
:105640008B1CAA85BB856FCDEA85FB8585859685F4
:105650008230910509F45DC048F4009769F0019724
:10566000B9F031102EC186E090E0E6C0833091059C
:1056700009F492C00597A9F7AA85BB8596961C9256
:105680001E929597E1E0F0E01E96FC93EE931D9735
:10569000AA85BB8595968D919C9196970196969635
:1056A0009C938E9395979396EC90B8E0EB9E700147
:1056B0001124DD24D394EA85FB8525A136A184A19C
:1056C00090E00196A3E0880F991FAA95E1F7E816EC
:1056D000F90694F4C701837099278217930744F45D
:1056E000458D4D254195B701808191810E943A16E3
:1056F000FFEFEF1AFF0ADFCF82E090E024303105A0
:1057000009F0A6CCAA85BB851E969C938E931D9707
:105710009FCC8A859B850E94701C332021F08A854E
:105720009B850E948B1CEA85FB8585A196A101972C
:1057300096A385A3E3A0F8E0EF9E70011124DD2479
:10574000D394AA85BB8595962D913C919697949676
:105750008C91949790E00196F3E0880F991FFA9549
:10576000E1F7E816F906A4F4C701837099278217B8
:10577000930754F45D964C915D974D254195B70183
:105780008D919C910E943A16BFEFEB1AFB0AD9CF7C
:10579000232B09F05DCCF0CE8A859B850E94701C7E
:1057A000332009F412C18A859B850E948B1C85E0F9
:1057B00090E0A8CFAA85BB851D968D919C918230E3
:1057C000910509F43CC038F08330910509F46EC0AE
:1057D000059709F0F8C0EA85FB85E3A0F8E0EF9EA5
:1057E00070011124AA85BB8594968C91949790E0C2
:1057F0000196E3E0880F991FEA95E1F7E816F906AC
:10580000CCF45D96BC905D97CD90DC906E2DC6017A
:105810000E94720DB110809545E5E0FE4AEA482BE2
:10582000B1104095B701C6010E943A16BFEFEB1ABE
:10583000FB0AD8CF82E090E0EA85FB85F7CC8A8529
:105840009B850E94701C332021F08A859B850E94D5
:105850008B1CAA85BB859396EC90B8E0EB9E7001FB
:105860001124EA85FB8584A190E0019673E0880FFE
:10587000991F7A95E1F7E816F9060CF0E2CEB58C9F
:10588000C080D1806E2DC6010E94720DB11080952E
:105890004AEAE0FE45E5482BB1104095B701C60144
:1058A0000E943A16FFEFEF1AFF0ADBCF8A859B852D
:1058B0000E94701C332009F4D6CE8A859B850E94F5
:1058C0008B1C85E090E0B8CFEA85FB8585859685C1
:1058D0008430910508F07CC0019708F47CC0EA850B
:1058E000FB8516A215A20E94DF3C4B015C010E94C1
:1058F000DF3C6E837F8388879987AA85BB859596D1
:10590000CD90DC90BFEFCB1ADB0AEA85FB85D6A2EF
:10591000C5A2C501B4012BE030E040E050E00E9498
:105920002B4070E09B012F5D3B4F7901D901BC906A
:105930006E817F818885998528E030E040E050E0E5
:105940000E942B408B2D90E0062E02C095958795E6
:105950000A94E2F780FF05C0B8E8CB16B3E1DB0696
:1059600014F281E090E001C0880F6A95EAF7B82A46
:10597000F701B0828A859B850E948B1CAA85BB8516
:1059800096961C921E9295979396BC90BB0CBB0C5E
:10599000BB0CEA85FB8584A190E0019663E0880F4B
:1059A000991F6A95E1F7CB2CD12CC816D90614F1B2
:1059B000E1E2F4E081918F3F09F04ACB29E234E043
:1059C0002E173F07B9F73110F2CE86E090E09ACE5D
:1059D000059709F046CEE1E2F4E011922CE234E0C2
:1059E0002E173F07D1F7AA85BB851E967C926E9233
:1059F0001D9775CFAA85BB85ED90FC906B2DC701D7
:105A00000E94720DAA85BB859596ED91FC91EF5D84
:105A1000FB4F4081311001C040954823B601C701BA
:105A20000E943A16EA85FB8585A196A101968B30E6
:105A3000910521F096A385A3B394ABCFAA85BB852E
:105A400096961C921E929597F7CFAA85BB851D96B8
:105A50008D919C913110C8C18430910508F0C0C16E
:105A6000019778F58A859B850E94BE0CEA85FB85A7
:105A700080A591A522A533A58217930724F431A709
:105A800020A793A782A7AA85BB85DE968D919C91BE
:105A9000DF97892B09F4C8C1EA85FB8583A1F8E06B
:105AA0008F9FC00111240197AA85BB8596969C9370
:105AB0008E93959797961C9297971E967C926E92CE
:105AC0001D978A859B850E948B1CEA85FB8585A195
:105AD00096A1019696A385A3F12C6F01F1E4CF0E58
